{
  "contractName": "ContractManager",
  "abi": [
    {
      "inputs": [],
      "name": "ownerAddr",
      "outputs": [
        {
          "internalType": "address",
          "name": "",
          "type": "address"
        }
      ],
      "stateMutability": "view",
      "type": "function",
      "constant": true
    },
    {
      "inputs": [
        {
          "internalType": "address",
          "name": "_newOwner",
          "type": "address"
        }
      ],
      "name": "transferOwnership",
      "outputs": [],
      "stateMutability": "nonpayable",
      "type": "function"
    },
    {
      "inputs": [
        {
          "internalType": "string",
          "name": "_name",
          "type": "string"
        },
        {
          "internalType": "address",
          "name": "_address",
          "type": "address"
        }
      ],
      "name": "setAddress",
      "outputs": [],
      "stateMutability": "nonpayable",
      "type": "function"
    },
    {
      "inputs": [
        {
          "internalType": "string",
          "name": "_name",
          "type": "string"
        }
      ],
      "name": "getAddress",
      "outputs": [
        {
          "internalType": "address",
          "name": "",
          "type": "address"
        }
      ],
      "stateMutability": "view",
      "type": "function",
      "constant": true
    },
    {
      "inputs": [
        {
          "internalType": "string",
          "name": "_name",
          "type": "string"
        }
      ],
      "name": "deleteAddress",
      "outputs": [],
      "stateMutability": "nonpayable",
      "type": "function"
    }
  ],
  "bytecode": "0x608060405234801561001057600080fd5b50336000806101000a81548173ffffffffffffffffffffffffffffffffffffffff021916908373ffffffffffffffffffffffffffffffffffffffff160217905550610672806100606000396000f3fe608060405234801561001057600080fd5b50600436106100575760003560e01c80639b2ea4bd1461005c5780639c675eaa14610078578063bf40fac114610096578063c193b42a146100c6578063f2fde38b146100e2575b600080fd5b610076600480360381019061007191906104b8565b6100fe565b005b61008061015f565b60405161008d9190610523565b60405180910390f35b6100b060048036038101906100ab919061053e565b610183565b6040516100bd9190610523565b60405180910390f35b6100e060048036038101906100db919061053e565b6101cb565b005b6100fc60048036038101906100f79190610587565b61022c565b005b8060018360405161010f9190610625565b908152602001604051809103902060006101000a81548173ffffffffffffffffffffffffffffffffffffffff021916908373ffffffffffffffffffffffffffffffffffffffff1602179055505050565b60008054906101000a900473ffffffffffffffffffffffffffffffffffffffff1681565b60006001826040516101959190610625565b908152602001604051809103902060009054906101000a900473ffffffffffffffffffffffffffffffffffffffff169050919050565b60006001826040516101dd9190610625565b908152602001604051809103902060006101000a81548173ffffffffffffffffffffffffffffffffffffffff021916908373ffffffffffffffffffffffffffffffffffffffff16021790555050565b60008054906101000a900473ffffffffffffffffffffffffffffffffffffffff1673ffffffffffffffffffffffffffffffffffffffff163373ffffffffffffffffffffffffffffffffffffffff161461028457600080fd5b600073ffffffffffffffffffffffffffffffffffffffff168173ffffffffffffffffffffffffffffffffffffffff16036102bd57600080fd5b806000806101000a81548173ffffffffffffffffffffffffffffffffffffffff021916908373ffffffffffffffffffffffffffffffffffffffff16021790555050565b6000604051905090565b600080fd5b600080fd5b600080fd5b600080fd5b6000601f19601f8301169050919050565b7f4e487b7100000000000000000000000000000000000000000000000000000000600052604160045260246000fd5b6103678261031e565b810181811067ffffffffffffffff821117156103865761038561032f565b5b80604052505050565b6000610399610300565b90506103a5828261035e565b919050565b600067ffffffffffffffff8211156103c5576103c461032f565b5b6103ce8261031e565b9050602081019050919050565b82818337600083830152505050565b60006103fd6103f8846103aa565b61038f565b90508281526020810184848401111561041957610418610319565b5b6104248482856103db565b509392505050565b600082601f83011261044157610440610314565b5b81356104518482602086016103ea565b91505092915050565b600073ffffffffffffffffffffffffffffffffffffffff82169050919050565b60006104858261045a565b9050919050565b6104958161047a565b81146104a057600080fd5b50565b6000813590506104b28161048c565b92915050565b600080604083850312156104cf576104ce61030a565b5b600083013567ffffffffffffffff8111156104ed576104ec61030f565b5b6104f98582860161042c565b925050602061050a858286016104a3565b9150509250929050565b61051d8161047a565b82525050565b60006020820190506105386000830184610514565b92915050565b6000602082840312156105545761055361030a565b5b600082013567ffffffffffffffff8111156105725761057161030f565b5b61057e8482850161042c565b91505092915050565b60006020828403121561059d5761059c61030a565b5b60006105ab848285016104a3565b91505092915050565b600081519050919050565b600081905092915050565b60005b838110156105e85780820151818401526020810190506105cd565b60008484015250505050565b60006105ff826105b4565b61060981856105bf565b93506106198185602086016105ca565b80840191505092915050565b600061063182846105f4565b91508190509291505056fea2646970667358221220aa63fafb68bb54bcbb03bca7b605c96a3ad778872a7bd6d599db899fe61e3ec564736f6c63430008110033",
  "immutableReferences": {},
  "source": "// SPDX-License-Identifier: MIT\npragma solidity >=0.4.22 <0.9.0;\n\nimport \"./helpers/Owned.sol\";\n\ncontract ContractManager is Owned {\n    mapping(string => address) addresses;\n\n    function setAddress(string memory _name, address _address) public {\n        addresses[_name] = _address;\n    }\n\n    function getAddress(string memory _name) public view returns (address) {\n        return addresses[_name];\n    }\n\n    function deleteAddress(string memory _name) public {\n        addresses[_name] = address(0);\n    }\n}\n",
  "sourcePath": "/home/phmngocnghia/Personal/eth-tweeter/contracts/ContractManager.sol",
  "compiler": {
    "name": "solc",
    "version": "0.8.17+commit.8df45f5f.Emscripten.clang"
  },
  "schemaVersion": "3.4.11",
  "updatedAt": "2022-12-03T17:02:22.677Z",
  "networkType": "ethereum",
  "devdoc": {
    "kind": "dev",
    "methods": {},
    "version": 1
  },
  "userdoc": {
    "kind": "user",
    "methods": {},
    "version": 1
  }
}