{
  "contractName": "TweetController",
  "abi": [
    {
      "inputs": [],
      "name": "ownerAddr",
      "outputs": [
        {
          "internalType": "address",
          "name": "",
          "type": "address"
        }
      ],
      "stateMutability": "view",
      "type": "function",
      "constant": true
    },
    {
      "inputs": [
        {
          "internalType": "address",
          "name": "_managerAddr",
          "type": "address"
        }
      ],
      "name": "setManagerAddr",
      "outputs": [],
      "stateMutability": "nonpayable",
      "type": "function"
    },
    {
      "inputs": [
        {
          "internalType": "address",
          "name": "_newOwner",
          "type": "address"
        }
      ],
      "name": "transferOwnership",
      "outputs": [],
      "stateMutability": "nonpayable",
      "type": "function"
    },
    {
      "inputs": [
        {
          "internalType": "string",
          "name": "_text",
          "type": "string"
        }
      ],
      "name": "createTweet",
      "outputs": [
        {
          "internalType": "uint256",
          "name": "",
          "type": "uint256"
        }
      ],
      "stateMutability": "nonpayable",
      "type": "function"
    }
  ],
  "bytecode": "0x608060405234801561001057600080fd5b50336000806101000a81548173ffffffffffffffffffffffffffffffffffffffff021916908373ffffffffffffffffffffffffffffffffffffffff160217905550610903806100606000396000f3fe608060405234801561001057600080fd5b506004361061004c5760003560e01c80637978b231146100515780637c9cd2bc1461006d5780639c675eaa1461009d578063f2fde38b146100bb575b600080fd5b61006b60048036038101906100669190610491565b6100d7565b005b61008760048036038101906100829190610604565b610173565b6040516100949190610666565b60405180910390f35b6100a5610327565b6040516100b29190610690565b60405180910390f35b6100d560048036038101906100d09190610491565b61034b565b005b60008054906101000a900473ffffffffffffffffffffffffffffffffffffffff1673ffffffffffffffffffffffffffffffffffffffff163373ffffffffffffffffffffffffffffffffffffffff161461012f57600080fd5b80600160006101000a81548173ffffffffffffffffffffffffffffffffffffffff021916908373ffffffffffffffffffffffffffffffffffffffff16021790555050565b600080600160009054906101000a900473ffffffffffffffffffffffffffffffffffffffff16905060008173ffffffffffffffffffffffffffffffffffffffff1663bf40fac16040518163ffffffff1660e01b81526004016101d490610708565b602060405180830381865afa1580156101f1573d6000803e3d6000fd5b505050506040513d601f19601f82011682018060405250810190610215919061073d565b9050600081905060008373ffffffffffffffffffffffffffffffffffffffff1663bf40fac16040518163ffffffff1660e01b8152600401610255906107b6565b602060405180830381865afa158015610272573d6000803e3d6000fd5b505050506040513d601f19601f82011682018060405250810190610296919061073d565b905060008190508073ffffffffffffffffffffffffffffffffffffffff16634b4270cc33896040518363ffffffff1660e01b81526004016102d8929190610844565b6020604051808303816000875af11580156102f7573d6000803e3d6000fd5b505050506040513d601f19601f8201168201806040525081019061031b91906108a0565b95505050505050919050565b60008054906101000a900473ffffffffffffffffffffffffffffffffffffffff1681565b60008054906101000a900473ffffffffffffffffffffffffffffffffffffffff1673ffffffffffffffffffffffffffffffffffffffff163373ffffffffffffffffffffffffffffffffffffffff16146103a357600080fd5b600073ffffffffffffffffffffffffffffffffffffffff168173ffffffffffffffffffffffffffffffffffffffff16036103dc57600080fd5b806000806101000a81548173ffffffffffffffffffffffffffffffffffffffff021916908373ffffffffffffffffffffffffffffffffffffffff16021790555050565b6000604051905090565b600080fd5b600080fd5b600073ffffffffffffffffffffffffffffffffffffffff82169050919050565b600061045e82610433565b9050919050565b61046e81610453565b811461047957600080fd5b50565b60008135905061048b81610465565b92915050565b6000602082840312156104a7576104a6610429565b5b60006104b58482850161047c565b91505092915050565b600080fd5b600080fd5b6000601f19601f8301169050919050565b7f4e487b7100000000000000000000000000000000000000000000000000000000600052604160045260246000fd5b610511826104c8565b810181811067ffffffffffffffff821117156105305761052f6104d9565b5b80604052505050565b600061054361041f565b905061054f8282610508565b919050565b600067ffffffffffffffff82111561056f5761056e6104d9565b5b610578826104c8565b9050602081019050919050565b82818337600083830152505050565b60006105a76105a284610554565b610539565b9050828152602081018484840111156105c3576105c26104c3565b5b6105ce848285610585565b509392505050565b600082601f8301126105eb576105ea6104be565b5b81356105fb848260208601610594565b91505092915050565b60006020828403121561061a57610619610429565b5b600082013567ffffffffffffffff8111156106385761063761042e565b5b610644848285016105d6565b91505092915050565b6000819050919050565b6106608161064d565b82525050565b600060208201905061067b6000830184610657565b92915050565b61068a81610453565b82525050565b60006020820190506106a56000830184610681565b92915050565b600082825260208201905092915050565b7f5573657253746f72616765000000000000000000000000000000000000000000600082015250565b60006106f2600b836106ab565b91506106fd826106bc565b602082019050919050565b60006020820190508181036000830152610721816106e5565b9050919050565b60008151905061073781610465565b92915050565b60006020828403121561075357610752610429565b5b600061076184828501610728565b91505092915050565b7f547765657453746f726167650000000000000000000000000000000000000000600082015250565b60006107a0600c836106ab565b91506107ab8261076a565b602082019050919050565b600060208201905081810360008301526107cf81610793565b9050919050565b600081519050919050565b60005b838110156107ff5780820151818401526020810190506107e4565b60008484015250505050565b6000610816826107d6565b61082081856106ab565b93506108308185602086016107e1565b610839816104c8565b840191505092915050565b60006040820190506108596000830185610681565b818103602083015261086b818461080b565b90509392505050565b61087d8161064d565b811461088857600080fd5b50565b60008151905061089a81610874565b92915050565b6000602082840312156108b6576108b5610429565b5b60006108c48482850161088b565b9150509291505056fea2646970667358221220eb0cd5faa16d6d40e39879a33ac391e1940307d3e7b088e9692d49e8f2b5b5d364736f6c63430008110033",
  "immutableReferences": {},
  "source": "pragma solidity >=0.4.22 <0.9.0;\n\nimport \"../helpers/BaseController.sol\";\nimport \"../ContractManager.sol\";\nimport \"./TweetStorage.sol\";\nimport \"../users/UserStorage.sol\";\n\ncontract TweetController is BaseController {\n    function createTweet(string memory _text) public returns (uint256) {\n        ContractManager _manager = ContractManager(managerAddr);\n\n        address _userStorageAddr = _manager.getAddress(\"UserStorage\");\n        UserStorage _userStorage = UserStorage(_userStorageAddr);\n\n        address _tweetStorageAddr = _manager.getAddress(\"TweetStorage\");\n        TweetStorage _tweetStorage = TweetStorage(_tweetStorageAddr);\n\n        return _tweetStorage.createTweet(msg.sender, _text);\n    }\n}\n",
  "sourcePath": "/home/phmngocnghia/Personal/eth-tweeter/contracts/tweet/TweetController.sol",
  "compiler": {
    "name": "solc",
    "version": "0.8.17+commit.8df45f5f.Emscripten.clang"
  },
  "schemaVersion": "3.4.11",
  "updatedAt": "2022-12-03T17:02:22.676Z",
  "networkType": "ethereum",
  "devdoc": {
    "kind": "dev",
    "methods": {},
    "version": 1
  },
  "userdoc": {
    "kind": "user",
    "methods": {},
    "version": 1
  }
}