{
  "contractName": "TweetStorage",
  "abi": [
    {
      "inputs": [],
      "name": "controllerAddr",
      "outputs": [
        {
          "internalType": "address",
          "name": "",
          "type": "address"
        }
      ],
      "stateMutability": "view",
      "type": "function",
      "constant": true
    },
    {
      "inputs": [],
      "name": "ownerAddr",
      "outputs": [
        {
          "internalType": "address",
          "name": "",
          "type": "address"
        }
      ],
      "stateMutability": "view",
      "type": "function",
      "constant": true
    },
    {
      "inputs": [
        {
          "internalType": "address",
          "name": "_controllerAddr",
          "type": "address"
        }
      ],
      "name": "setControllerAddr",
      "outputs": [],
      "stateMutability": "nonpayable",
      "type": "function"
    },
    {
      "inputs": [
        {
          "internalType": "address",
          "name": "_newOwner",
          "type": "address"
        }
      ],
      "name": "transferOwnership",
      "outputs": [],
      "stateMutability": "nonpayable",
      "type": "function"
    },
    {
      "inputs": [
        {
          "internalType": "uint256",
          "name": "",
          "type": "uint256"
        }
      ],
      "name": "tweets",
      "outputs": [
        {
          "internalType": "uint256",
          "name": "id",
          "type": "uint256"
        },
        {
          "internalType": "string",
          "name": "text",
          "type": "string"
        },
        {
          "internalType": "address",
          "name": "userAddress",
          "type": "address"
        },
        {
          "internalType": "uint256",
          "name": "postedAt",
          "type": "uint256"
        }
      ],
      "stateMutability": "view",
      "type": "function",
      "constant": true
    },
    {
      "inputs": [
        {
          "internalType": "address",
          "name": "_userAddress",
          "type": "address"
        },
        {
          "internalType": "string",
          "name": "_text",
          "type": "string"
        }
      ],
      "name": "createTweet",
      "outputs": [
        {
          "internalType": "uint256",
          "name": "",
          "type": "uint256"
        }
      ],
      "stateMutability": "nonpayable",
      "type": "function"
    }
  ],
  "bytecode": "0x6080604052600060035534801561001557600080fd5b50336000806101000a81548173ffffffffffffffffffffffffffffffffffffffff021916908373ffffffffffffffffffffffffffffffffffffffff160217905550610c5f806100656000396000f3fe608060405234801561001057600080fd5b50600436106100625760003560e01c80634b4270cc146100675780636981fa7d146100975780639c675eaa146100b3578063e8d857b0146100d1578063ee255c5714610104578063f2fde38b14610122575b600080fd5b610081600480360381019061007c91906106c9565b61013e565b60405161008e919061073e565b60405180910390f35b6100b160048036038101906100ac9190610759565b61027f565b005b6100bb61031b565b6040516100c89190610795565b60405180910390f35b6100eb60048036038101906100e691906107dc565b61033f565b6040516100fb9493929190610888565b60405180910390f35b61010c610417565b6040516101199190610795565b60405180910390f35b61013c60048036038101906101379190610759565b61043d565b005b6000600160009054906101000a900473ffffffffffffffffffffffffffffffffffffffff1673ffffffffffffffffffffffffffffffffffffffff163373ffffffffffffffffffffffffffffffffffffffff161461019a57600080fd5b600360008154809291906101ad90610903565b9190505550604051806080016040528060035481526020018381526020018473ffffffffffffffffffffffffffffffffffffffff1681526020014281525060026000600354815260200190815260200160002060008201518160000155602082015181600101908161021f9190610b57565b5060408201518160020160006101000a81548173ffffffffffffffffffffffffffffffffffffffff021916908373ffffffffffffffffffffffffffffffffffffffff16021790555060608201518160030155905050600354905092915050565b60008054906101000a900473ffffffffffffffffffffffffffffffffffffffff1673ffffffffffffffffffffffffffffffffffffffff163373ffffffffffffffffffffffffffffffffffffffff16146102d757600080fd5b80600160006101000a81548173ffffffffffffffffffffffffffffffffffffffff021916908373ffffffffffffffffffffffffffffffffffffffff16021790555050565b60008054906101000a900473ffffffffffffffffffffffffffffffffffffffff1681565b60026020528060005260406000206000915090508060000154908060010180546103689061097a565b80601f01602080910402602001604051908101604052809291908181526020018280546103949061097a565b80156103e15780601f106103b6576101008083540402835291602001916103e1565b820191906000526020600020905b8154815290600101906020018083116103c457829003601f168201915b5050505050908060020160009054906101000a900473ffffffffffffffffffffffffffffffffffffffff16908060030154905084565b600160009054906101000a900473ffffffffffffffffffffffffffffffffffffffff1681565b60008054906101000a900473ffffffffffffffffffffffffffffffffffffffff1673ffffffffffffffffffffffffffffffffffffffff163373ffffffffffffffffffffffffffffffffffffffff161461049557600080fd5b600073ffffffffffffffffffffffffffffffffffffffff168173ffffffffffffffffffffffffffffffffffffffff16036104ce57600080fd5b806000806101000a81548173ffffffffffffffffffffffffffffffffffffffff021916908373ffffffffffffffffffffffffffffffffffffffff16021790555050565b6000604051905090565b600080fd5b600080fd5b600073ffffffffffffffffffffffffffffffffffffffff82169050919050565b600061055082610525565b9050919050565b61056081610545565b811461056b57600080fd5b50565b60008135905061057d81610557565b92915050565b600080fd5b600080fd5b6000601f19601f8301169050919050565b7f4e487b7100000000000000000000000000000000000000000000000000000000600052604160045260246000fd5b6105d68261058d565b810181811067ffffffffffffffff821117156105f5576105f461059e565b5b80604052505050565b6000610608610511565b905061061482826105cd565b919050565b600067ffffffffffffffff8211156106345761063361059e565b5b61063d8261058d565b9050602081019050919050565b82818337600083830152505050565b600061066c61066784610619565b6105fe565b90508281526020810184848401111561068857610687610588565b5b61069384828561064a565b509392505050565b600082601f8301126106b0576106af610583565b5b81356106c0848260208601610659565b91505092915050565b600080604083850312156106e0576106df61051b565b5b60006106ee8582860161056e565b925050602083013567ffffffffffffffff81111561070f5761070e610520565b5b61071b8582860161069b565b9150509250929050565b6000819050919050565b61073881610725565b82525050565b6000602082019050610753600083018461072f565b92915050565b60006020828403121561076f5761076e61051b565b5b600061077d8482850161056e565b91505092915050565b61078f81610545565b82525050565b60006020820190506107aa6000830184610786565b92915050565b6107b981610725565b81146107c457600080fd5b50565b6000813590506107d6816107b0565b92915050565b6000602082840312156107f2576107f161051b565b5b6000610800848285016107c7565b91505092915050565b600081519050919050565b600082825260208201905092915050565b60005b83811015610843578082015181840152602081019050610828565b60008484015250505050565b600061085a82610809565b6108648185610814565b9350610874818560208601610825565b61087d8161058d565b840191505092915050565b600060808201905061089d600083018761072f565b81810360208301526108af818661084f565b90506108be6040830185610786565b6108cb606083018461072f565b95945050505050565b7f4e487b7100000000000000000000000000000000000000000000000000000000600052601160045260246000fd5b600061090e82610725565b91507fffffffffffffffffffffffffffffffffffffffffffffffffffffffffffffffff82036109405761093f6108d4565b5b600182019050919050565b7f4e487b7100000000000000000000000000000000000000000000000000000000600052602260045260246000fd5b6000600282049050600182168061099257607f821691505b6020821081036109a5576109a461094b565b5b50919050565b60008190508160005260206000209050919050565b60006020601f8301049050919050565b600082821b905092915050565b600060088302610a0d7fffffffffffffffffffffffffffffffffffffffffffffffffffffffffffffffff826109d0565b610a1786836109d0565b95508019841693508086168417925050509392505050565b6000819050919050565b6000610a54610a4f610a4a84610725565b610a2f565b610725565b9050919050565b6000819050919050565b610a6e83610a39565b610a82610a7a82610a5b565b8484546109dd565b825550505050565b600090565b610a97610a8a565b610aa2818484610a65565b505050565b5b81811015610ac657610abb600082610a8f565b600181019050610aa8565b5050565b601f821115610b0b57610adc816109ab565b610ae5846109c0565b81016020851015610af4578190505b610b08610b00856109c0565b830182610aa7565b50505b505050565b600082821c905092915050565b6000610b2e60001984600802610b10565b1980831691505092915050565b6000610b478383610b1d565b9150826002028217905092915050565b610b6082610809565b67ffffffffffffffff811115610b7957610b7861059e565b5b610b83825461097a565b610b8e828285610aca565b600060209050601f831160018114610bc15760008415610baf578287015190505b610bb98582610b3b565b865550610c21565b601f198416610bcf866109ab565b60005b82811015610bf757848901518255600182019150602085019450602081019050610bd2565b86831015610c145784890151610c10601f891682610b1d565b8355505b6001600288020188555050505b50505050505056fea2646970667358221220862d69a13848854792da5c71478d9351ae90530d11ce6b20b4d8d3f62f5b5c9564736f6c63430008110033",
  "immutableReferences": {},
  "source": "// SPDX-License-Identifier: MIT\npragma solidity >=0.4.22 <0.9.0;\n\nimport \"../helpers/BaseStorage.sol\";\n\ncontract TweetStorage is BaseStorage {\n    mapping(uint256 => Tweet) public tweets;\n\n    struct Tweet {\n        uint256 id;\n        string text;\n        address userAddress;\n        uint256 postedAt;\n    }\n\n    uint256 latestTweetId = 0;\n\n    function createTweet(address _userAddress, string memory _text)\n        public\n        onlyController\n        returns (uint256)\n    {\n        latestTweetId++;\n\n        tweets[latestTweetId] = Tweet(\n            latestTweetId,\n            _text,\n            _userAddress,\n            block.timestamp\n        );\n\n        return latestTweetId;\n    }\n}\n",
  "sourcePath": "/home/phmngocnghia/Personal/eth-tweeter/contracts/tweet/TweetStorage.sol",
  "compiler": {
    "name": "solc",
    "version": "0.8.17+commit.8df45f5f.Emscripten.clang"
  },
  "schemaVersion": "3.4.11",
  "updatedAt": "2022-12-03T17:02:22.519Z",
  "networkType": "ethereum",
  "devdoc": {
    "kind": "dev",
    "methods": {},
    "version": 1
  },
  "userdoc": {
    "kind": "user",
    "methods": {},
    "version": 1
  }
}