{
  "contractName": "UserController",
  "abi": [
    {
      "inputs": [],
      "name": "ownerAddr",
      "outputs": [
        {
          "internalType": "address",
          "name": "",
          "type": "address"
        }
      ],
      "stateMutability": "view",
      "type": "function",
      "constant": true
    },
    {
      "inputs": [
        {
          "internalType": "address",
          "name": "_managerAddr",
          "type": "address"
        }
      ],
      "name": "setManagerAddr",
      "outputs": [],
      "stateMutability": "nonpayable",
      "type": "function"
    },
    {
      "inputs": [
        {
          "internalType": "address",
          "name": "_newOwner",
          "type": "address"
        }
      ],
      "name": "transferOwnership",
      "outputs": [],
      "stateMutability": "nonpayable",
      "type": "function"
    },
    {
      "inputs": [
        {
          "internalType": "bytes32",
          "name": "_username",
          "type": "bytes32"
        }
      ],
      "name": "createUser",
      "outputs": [
        {
          "internalType": "uint256",
          "name": "_newUserId",
          "type": "uint256"
        }
      ],
      "stateMutability": "nonpayable",
      "type": "function"
    }
  ],
  "bytecode": "0x608060405234801561001057600080fd5b50336000806101000a81548173ffffffffffffffffffffffffffffffffffffffff021916908373ffffffffffffffffffffffffffffffffffffffff16021790555061078c806100606000396000f3fe608060405234801561001057600080fd5b506004361061004c5760003560e01c80637978b231146100515780639c675eaa1461006d578063abf7bfd81461008b578063f2fde38b146100bb575b600080fd5b61006b60048036038101906100669190610498565b6100d7565b005b610075610173565b60405161008291906104d4565b60405180910390f35b6100a560048036038101906100a09190610525565b610197565b6040516100b2919061056b565b60405180910390f35b6100d560048036038101906100d09190610498565b610361565b005b60008054906101000a900473ffffffffffffffffffffffffffffffffffffffff1673ffffffffffffffffffffffffffffffffffffffff163373ffffffffffffffffffffffffffffffffffffffff161461012f57600080fd5b80600160006101000a81548173ffffffffffffffffffffffffffffffffffffffff021916908373ffffffffffffffffffffffffffffffffffffffff16021790555050565b60008054906101000a900473ffffffffffffffffffffffffffffffffffffffff1681565b600080600160009054906101000a900473ffffffffffffffffffffffffffffffffffffffff16905060008173ffffffffffffffffffffffffffffffffffffffff1663bf40fac16040518163ffffffff1660e01b81526004016101f8906105e3565b602060405180830381865afa158015610215573d6000803e3d6000fd5b505050506040513d601f19601f820116820180604052508101906102399190610618565b905060008190506000801b851161024f57600080fd5b600015158173ffffffffffffffffffffffffffffffffffffffff1663ec4d88d7876040518263ffffffff1660e01b815260040161028c9190610654565b602060405180830381865afa1580156102a9573d6000803e3d6000fd5b505050506040513d601f19601f820116820180604052508101906102cd91906106a7565b1515146102d957600080fd5b8073ffffffffffffffffffffffffffffffffffffffff166316db95ec86336040518363ffffffff1660e01b81526004016103149291906106d4565b6020604051808303816000875af1158015610333573d6000803e3d6000fd5b505050506040513d601f19601f820116820180604052508101906103579190610729565b9350505050919050565b60008054906101000a900473ffffffffffffffffffffffffffffffffffffffff1673ffffffffffffffffffffffffffffffffffffffff163373ffffffffffffffffffffffffffffffffffffffff16146103b957600080fd5b600073ffffffffffffffffffffffffffffffffffffffff168173ffffffffffffffffffffffffffffffffffffffff16036103f257600080fd5b806000806101000a81548173ffffffffffffffffffffffffffffffffffffffff021916908373ffffffffffffffffffffffffffffffffffffffff16021790555050565b600080fd5b600073ffffffffffffffffffffffffffffffffffffffff82169050919050565b60006104658261043a565b9050919050565b6104758161045a565b811461048057600080fd5b50565b6000813590506104928161046c565b92915050565b6000602082840312156104ae576104ad610435565b5b60006104bc84828501610483565b91505092915050565b6104ce8161045a565b82525050565b60006020820190506104e960008301846104c5565b92915050565b6000819050919050565b610502816104ef565b811461050d57600080fd5b50565b60008135905061051f816104f9565b92915050565b60006020828403121561053b5761053a610435565b5b600061054984828501610510565b91505092915050565b6000819050919050565b61056581610552565b82525050565b6000602082019050610580600083018461055c565b92915050565b600082825260208201905092915050565b7f5573657253746f72616765000000000000000000000000000000000000000000600082015250565b60006105cd600b83610586565b91506105d882610597565b602082019050919050565b600060208201905081810360008301526105fc816105c0565b9050919050565b6000815190506106128161046c565b92915050565b60006020828403121561062e5761062d610435565b5b600061063c84828501610603565b91505092915050565b61064e816104ef565b82525050565b60006020820190506106696000830184610645565b92915050565b60008115159050919050565b6106848161066f565b811461068f57600080fd5b50565b6000815190506106a18161067b565b92915050565b6000602082840312156106bd576106bc610435565b5b60006106cb84828501610692565b91505092915050565b60006040820190506106e96000830185610645565b6106f660208301846104c5565b9392505050565b61070681610552565b811461071157600080fd5b50565b600081519050610723816106fd565b92915050565b60006020828403121561073f5761073e610435565b5b600061074d84828501610714565b9150509291505056fea264697066735822122042d0f908827eda8c75e5530a7e18e72a39dd3e2f768d79ec5dfc0b1e127c0f4a64736f6c63430008110033",
  "immutableReferences": {},
  "source": "// SPDX-License-Identifier: MIT\npragma solidity >=0.4.22 <0.9.0;\n\nimport \"../helpers/BaseController.sol\";\nimport \"../ContractManager.sol\";\nimport \"./UserStorage.sol\";\n\ncontract UserController is BaseController {\n    function createUser(bytes32 _username) public returns (uint256 _newUserId) {\n        ContractManager _manager = ContractManager(managerAddr);\n\n        address _userStorageAddr = _manager.getAddress(\"UserStorage\");\n        UserStorage _storage = UserStorage(_userStorageAddr);\n\n        require(_username > 0);\n        require(_storage.usernames(_username) == false);\n\n        return _storage.createUser(_username, msg.sender);\n    }\n}\n",
  "sourcePath": "/home/phmngocnghia/Personal/eth-tweeter/contracts/users/UserController.sol",
  "compiler": {
    "name": "solc",
    "version": "0.8.17+commit.8df45f5f.Emscripten.clang"
  },
  "schemaVersion": "3.4.11",
  "updatedAt": "2022-12-03T17:02:22.675Z",
  "networkType": "ethereum",
  "devdoc": {
    "kind": "dev",
    "methods": {},
    "version": 1
  },
  "userdoc": {
    "kind": "user",
    "methods": {},
    "version": 1
  }
}